:020000040000fa
:080000000001040000000000f3
:020000040000fa
:040008005e4f000047
:020000040000fa
:04000c005e4f000043
:020000040000fa
:040010005e4f00003f
:020000040000fa
:040014005e4f00003b
:020000040000fa
:040018005e4f000037
:020000040000fa
:04001c005e4f000033
:020000040000fa
:040020005e4f00002f
:020000040000fa
:040024005e4f00002b
:020000040000fa
:04002800dc010000f7
:020000040000fa
:04002c005e4f000023
:020000040000fa
:040030005e4f00001f
:020000040000fa
:04003400a80100001f
:020000040000fa
:040038005e4f000017
:020000040000fa
:04003c005e4f000013
:020000040000fa
:0400400000030000b9
:020000040000fa
:0400440006030000af
:020000040000fa
:040048005e4f000007
:020000040000fa
:04004c00ac580000ac
:020000040000fa
:040050006a580000ea
:020000040000fa
:040054005e4f0000fb
:020000040000fa
:040058005e4f0000f7
:020000040000fa
:04005c005e4f0000f3
:020000040000fa
:040060005e4f0000ef
:020000040000fa
:040064005e4f0000eb
:020000040000fa
:040068004002000052
:020000040000fa
:04006c005e4f0000e3
:020000040000fa
:040070005e4f0000df
:020000040000fa
:040074005e4f0000db
:020000040000fa
:040078005e4f0000d7
:020000040000fa
:04007c000c03000071
:020000040000fa
:040080005e4f0000cf
:020000040000fa
:04008400a0020000d6
:020000040000fa
:040088005e4f0000c7
:020000040000fa
:04008c005e4f0000c3
:020000040000fa
:040090005e4f0000bf
:020000040000fa
:040094005e4f0000bb
:020000040000fa
:040098005e4f0000b7
:020000040000fa
:04009c005e4f0000b3
:020000040000fa
:0400a0005e4f0000af
:020000040000fa
:0400a4005e4f0000ab
:020000040000fa
:0400a8005e4f0000a7
:020000040000fa
:0400ac005e4f0000a3
:020000040000fa
:0400b0005e4f00009f
:020000040000fa
:0400b4005e4f00009b
:020000040000fa
:0400b8005e4f000097
:020000040000fa
:0400bc005e4f000093
:020000040000fa
:0400c0005e4f00008f
:020000040000fa
:0400c4005e4f00008b
:020000040000fa
:0400c8005e4f000087
:020000040000fa
:0400cc005e4f000083
:020000040000fa
:0400d0005e4f00007f
:020000040000fa
:0400d4005e4f00007b
:020000040000fa
:0400d8005e4f000077
:020000040000fa
:040108005e4f000046
:020000040000fa
:04010c005e4f000042
:020000040000fa
:040110005e4f00003e
:020000040000fa
:040114005e4f00003a
:020000040000fa
:040118005e4f000036
:020000040000fa
:04011c005e4f000032
:020000040000fa
:040120005e4f00002e
:020000040000fa
:040124005e4f00002a
:020000040000fa
:040128005e4f000026
:020000040000fa
:04012c005e4f000022
:020000040000fa
:040130005e4f00001e
:020000040000fa
:040134005e4f00001a
:020000040000fa
:040138005e4f000016
:020000040000fa
:04013c005e4f000012
:020000040000fa
:040140005e4f00000e
:020000040000fa
:040144005e4f00000a
:020000040000fa
:040148005e4f000006
:020000040000fa
:04014c005e4f000002
:020000040000fa
:040150005e4f0000fe
:020000040000fa
:040154005e4f0000fa
:020000040000fa
:040158005e4f0000f6
:020000040000fa
:04015c005e4f0000f2
:020000040000fa
:040160005e4f0000ee
:020000040000fa
:040164005e4f0000ea
:020000040000fa
:040168005e4f0000e6
:020000040000fa
:04016c005e4f0000e2
:020000040000fa
:040170005e4f0000de
:020000040000fa
:040174005e4f0000da
:020000040000fa
:040178005e4f0000d6
:020000040000fa
:04017c005e4f0000d2
:020000040000fa
:040180005e4f0000ce
:020000040000fa
:040184005e4f0000ca
:020000040000fa
:040188005e4f0000c6
:020000040000fa
:04018c005e4f0000c2
:020000040000fa
:040190005e4f0000be
:020000040000fa
:040194005e4f0000ba
:020000040000fa
:040198005e4f0000b6
:020000040000fa
:04019c005e4f0000b2
:020000040000fa
:0401a0005e4f0000ae
:020000040000fa
:0401a4005e4f0000aa
:020000040000fa
:0401a8005e4f0000a6
:020000040000fa
:0401ac005e4f0000a2
:020000040000fa
:0401b0005e4f00009e
:020000040000fa
:0401b4005e4f00009a
:020000040000fa
:0401b8005e4f000096
:020000040000fa
:0401bc005e4f000092
:020000040000fa
:0401c0005e4f00008e
:020000040000fa
:0401c4005e4f00008a
:020000040000fa
:0401c8005e4f000086
:020000040000fa
:0401cc005e4f000082
:020000040000fa
:0401d0005e4f00007e
:020000040000fa
:0401d4005e4f00007a
:020000040000fa
:0401d8005e4f000076
:020000040000fa
:10020000efe12000eefd20000e018800000000005c
:10021000000020000000e000020032000001200089
:10022000200288000c0007008065260001002000e5
:1002300011000700000020000000e0000200320072
:100240000000020000000000120302000000000095
:100250000040da000000fe004440a9000020200019
:100260000000e0000300320000002000a001880030
:100270004440a8000000060091018800800078003a
:100280000000eb0015003700e280400032a0b4000f
:100290009101ba00e280400032a0b4009102ba009d
:1002a000e280400032a0b4000002eb00472bde00e9
:1002b000f507b200602ce10004003a000059eb00a1
:1002c0008301e900fdff3e00040037006128e100e2
:1002d000010032000082eb000b00070011c3ba00de
:1002e0001101ba000604e00003003a000200e00039
:1002f000e5ff3a0000000600f607b200960188000c
:1003000082007800f5ff37003159ba008301e90017
:100310000c0032002159ba008301e90008003200c4
:100320000400e00003003a00e280400032a0b40084
:10033000f5ff370011d9ba008301e900faff3a004e
:100340008100e800e180400032a0b4000000060017
:100350003600f800809fbe00829fbe00849fbe00d2
:10036000869fbe000000fa00b6c9bf000040e8004a
:10037000b6e9b700619b20009140780020c3b3002c
:1003800080cf500003003a00b669ef0010c0b30000
:10039000b5e9b7005d2d07008460a9000080fa0070
:1003a0004f03be004f02be004f01be004f00be0013
:1003b0003600f90000400600801f78000000fa00b7
:1003c0008400a9008c00a9008600a9008e00a80066
:1003d00086e0a9008ee0a800c00880006054880074
:1003e0001821ef003fccbf003decb7003eccbf0072
:1003f0003cecb70040ccbf000004e00009003a002c
:10040000aec8bf000004e00006003a003dccbf00cb
:10041000e14f5000030032003cccbf00e14f5000e0
:1004200000003a0010c0b300c4eab700b96aef0098
:10043000bacabf000040e800baeab700bacabf00b3
:10044000e54f50000200360050c0b300baeab700d2
:10045000bbcabf000040e800bbeab700bbcabf0090
:10046000e54f50000200360050c0b300bbeab700b1
:100470008400a9000080fa004f00780000400600c8
:10048000801f78000000fa008400a9008c00a800fa
:100490008600a9008e00a90086e0a9008ee0a800d1
:1004a000c0088000405488001821ef003fccbf00f6
:1004b0003decb7003eccbf003cecb70040ccbf00e9
:1004c0000004e00009003a00aec8bf000004e000ec
:1004d00006003a003dccbf00e14f5000030032005f
:1004e0003cccbf00e14f500000003a00ba6aef0078
:1004f000b9cabf000040e800b9eab700b9cabf00f6
:10050000e54f50000200360050c0b300b9eab70012
:10051000bbcabf000040e800bbeab700bbcabf00cf
:10052000e54f50000200360050c0b300bbeab700f0
:100530008600a9000080fa004f0078000040060005
:10054000801f78000000fa008400a9008c00a80039
:100550008600a9008e00a80086e0a9008ee0a90010
:10056000c0088000505488001821ef003fccbf0025
:100570003decb7003eccbf003cecb70040ccbf0028
:100580000004e00009003a00aec8bf000004e0002b
:1005900006003a003dccbf00e14f5000030032009e
:1005a0003cccbf00e14f500000003a00bb6aef00b6
:1005b000b9cabf000040e800b9eab700b9cabf0035
:1005c000e54f50000200360050c0b300b9eab70052
:1005d000bacabf000040e800baeab700bacabf0012
:1005e000e54f50000200360050c0b300baeab70031
:1005f00086e0a9000080fa004f0078000040060065
:100600000000fa000080fa00004006000000fa0036
:100610000080fa00004006000000fa000080fa00a6
:10062000004006000800fa00889fbe000000eb00b2
:10063000200798000040eb0020479800ae40900053
:10064000114798001e419000024f78000040eb00d7
:10065000004f78000040eb0060479800bc0807009e
:10066000003a80004400de006140600059ecb700b1
:100670004087a900800a20009042880040012000a5
:10068000a042880030042000b042880020052000ed
:10069000c0428800800a2000d0428800f31807007a
:1006a00010c0b300c11a07000068290081092000aa
:1006b000a63107002b003700b5c9bf00e14f50003d
:1006c00004003a00d05280000000e800d0528800b8
:1006d000b569ef008040eb0090ab2000d91a07000d
:1006e000e14f50000a00320011c0b30090ab20006f
:1006f000d41a0700e14f50000500320021c0b300ba
:1007000090ab2000cf1a0700e14f500003003a00e1
:1007100010c0b300bdeab700bc6aef0031c0b3003f
:1007200090ab2000c71a0700e14f50000a003200ca
:1007300041c0b30090ab2000c21a0700e14f500047
:100740000500320051c0b30090ab2000bd1a070075
:10075000e14f500003003a0010c0b300bceab700fc
:10076000bd6aef00d1528000700c2000808f5000d5
:10077000d1ff3600b9cabf00e34f50000200360077
:1007800010c0b300beeab700bacabf00e34f5000c2
:100790000200360010c0b300bfeab700bbcabf00fa
:1007a000e34f50000200360010c0b300c0eab700ab
:1007b00061c0b30090ab2000a21a0700e14f5000c7
:1007c00006003a0010c0b300beeab70010c0b30084
:1007d000bfeab70010c0b300c0eab700becabf008e
:1007e000e14f500006003200bfcabf00e14f500089
:1007f00003003200c0cabf00e14f500004003a00bd
:10080000c16aef00bd6aef00bc6aef00020037006a
:1008100010c0b300c1eab700c1cabf00e14f500029
:1008200006003a00bdcabf00e14f500003003a0085
:1008300010c0b3003fecb700010037003f6cef0081
:10084000c1cabf00e14f500006003a00bccabf0059
:10085000e14f500003003a0010c0b3003eecb70077
:10086000010037003e6cef0020148000a046880095
:10087000a0468000b0628800f61c070040a7a800d0
:1008800010c0b300692b0700572c0700d662a900df
:1008900001003700000000000060fe008723070011
:1008a00020148000a046880010148000c0468800f4
:1008b00000148000b046880030148000d0468800c4
:1008c00040148000e046880050148000f046880004
:1008d000c56aef00c4cabf000004e00033003a005c
:1008e000105680000000e80010568800a0468000e6
:1008f0006101b8003056800041568000020040007f
:10090000838048003056880041568800c0468000e9
:100910006101b8005056800061568000020040001e
:10092000838048005056880061568800b046800099
:100930006101b800705680008156800002004000be
:10094000838048007056880081568800d046800019
:100950006101b80090568000a1568000020040005e
:100960008380480090568800a1568800e0468000a9
:100970006101b800b0568000c156800002004000fe
:1009800083804800b0568800c1568800f046800039
:100990006101b800d0568000e1568000020040009e
:1009a00083804800d0568800e1568800c4cabf0042
:1009b000e14f5000f6003a001056800000488800d1
:1009c0003456800045568000105680008000eb00b1
:1009d0000001be000400be003728070000007800b8
:1009e0000047880010c0b300deeab700545680000c
:1009f00065568000105680008000eb000001be00ac
:100a00000400be002c280700000078002047880062
:100a100010c0b300dfeab70074568000855680002e
:100a2000105680008000eb000001be000400be00f4
:100a300021280700000078001047880010c0b3008c
:100a4000e0eab70094568000a5568000105680005a
:100a50008000eb000001be000400be001628070065
:100a6000000078003047880010c0b300e1eab7000a
:100a7000b4568000c5568000105680008000eb0000
:100a80000001be000400be000b2807000000780033
:100a90009048880010c0b300e2eab700d456800046
:100aa000e5568000105680008000eb000001be007b
:100ab0000400be000028070000007800a04888005d
:100ac00010c0b300e3eab700344a8000454a800012
:100ad000e0528000f15280000001be000400be0020
:100ae00051260700e0528800f1528800144b800024
:100af000254b800000538000115380000001be0090
:100b00000400be00482607000053880011538800e7
:100b1000744a8000854a8000205380003153800051
:100b20000001be000400be003f26070020538800dd
:100b300031538800544a8000654a80004053800049
:100b4000515380000001be000400be00362607009d
:100b50004053880051538800d44a8000e54a800001
:100b600060538000715380000001be000400be008d
:100b70002d2607006053880071538800b04780001d
:100b80008000eb00392707000002be008053800080
:100b9000915380000001be000400be002226070021
:100ba0008053880091538800004980008000eb004a
:100bb0002e2707000002be00a0538000b153800022
:100bc0000001be000400be0017260700a0538800e5
:100bd000b1538800e05380000000e800e053880033
:100be000e153800020032000808f500068003a000d
:100bf000e0528000f1528000020020008324240093
:100c00006e2607000200200003122400762707004a
:100c1000f826070000007800104888000053800084
:100c20001153800002002000832424006326070063
:100c300002002000031224006b270700ed260700a6
:100c40000000780020488800205380003153800045
:100c50000200200083242400582607000200200000
:100c60000312240060270700e22607000000780036
:100c7000304888004053800051538000020020001b
:100c8000832424004d2607000200200003122400c4
:100c900055270700d7260700000078004048880045
:100ca00060538000715380000200200083242400e0
:100cb0004226070002002000031224004a270700f2
:100cc000cc26070000007800504888008053800040
:100cd000915380000200200083242400372607005f
:100ce00002002000031224003f270700c12607004e
:100cf000000078006048880000ba2f0081c52400f9
:100d000020528800315288002052800031528000e9
:100d1000d62607000002be00a0538000b153800019
:100d20000001be000400be0024260700b126070013
:100d300000007800704888006000b800e052880029
:100d4000f15288006000b8000053880011538800f9
:100d50006000b80020538800315388006000b8005c
:100d600040538800515388006000b80060538800e9
:100d7000715388006000b800805388009153880048
:100d80006000b800a0538800b15388007c2aef00af
:100d9000decabf00e14f50001f003a00dfcabf00ab
:100da000e14f50001c003a00e0cabf00e14f500084
:100db00019003a00e1cabf00e14f500016003a00a6
:100dc000c62aef00c82aef00ca2aef00cc2aef009b
:100dd000ce2aef00d02aef00d22aef00d42aef006b
:100de000d62aef00d82aef00da2aef00dc2aef003b
:100df00010c0b300c5eab700c46aef00c22aef0012
:100e0000de6aef00df6aef00e06aef00e16aef0000
:100e1000e26aef00e36aef009cc8bf00e14f5000b8
:100e200005003a0000478000404788009048800055
:100e3000b0488800070037009cc8bf000004e000ed
:100e400004003a00a046800040478800e046800049
:100e5000b0488800e146800080bb2000808f5000b1
:100e60000a003600c3ccbf000004e00007003a00cf
:100e700010c0b300c3ecb70000002000411d2400e7
:100e8000304988004149880005003700e14680006c
:100e900070bb2000808f500001003e00c36cef004b
:100ea00054cabf00e14f500008003a0030498000aa
:100eb0004149800082eb210053f82300ca26070035
:100ec000b0528800c15288000400370030498000c9
:100ed00041498000b0528800c152880040478000dc
:100ee0008000eb00612607000004be006057800010
:100ef0008000eb005d2607000001be000800be0078
:100f0000482507000002be002057800031578000ae
:100f10000001be000400be00b3260700304a88006e
:100f2000414a8800b04880008000eb004f2607004f
:100f30000002be00d0578000e15780000001be00d3
:100f40000400be00372507000002be007057800075
:100f5000815780000001be000400be00a2260700e9
:100f60000004be00f6cabf000080fb00cf80de0098
:100f70003b2607000001be000800be002a2507002e
:100f8000d04a8800e14a8800d04a8000e14a8000c7
:100f90000001be006000b80022250700f2282c00e6
:100fa00053d72300902607000002be00b0528000f5
:100fb000c15280000001be000400be001a250700d7
:100fc000904a8800a14a8800904a8000a14a800087
:100fd00002002000031224008326070005260700d4
:100fe00000007800804888009dc8bf000004e00031
:100ff00004003200e146800080bb2000808f50005a
:1010000005003600b0528000c1528000f0578800c1
:101010000158880004003700904a8000a14a8000ef
:10102000f057880001588800f05780000158800070
:1010300002002000a34724006b260700ed250700cf
:101040000000780010588800105880006101b80036
:101050001062800021628000800f5100818f590052
:1010600028003400a2c8bf000004e00003003a00da
:1010700010588000d06188004c0037003166800035
:10108000007d2000808f500008003a00304680002c
:101090006101b800106280002162800002004000ff
:1010a0008380480010628800216288001058800008
:1010b0006101b8001062800021628000800f510041
:1010c000818f590005003400106280002162800089
:1010d00000007800d061880034003700105880008c
:1010e0006101b8001062800021628000800f510011
:1010f000818f59002d003d0010588000d06188007c
:101100002a003700105880006101b800106280008a
:1011100021628000800f5100818f590023003d0023
:10112000a3c8bf000004e00003003a00105880008c
:10113000d06188001d0037001262800023628000a9
:10114000404680008000eb00000051008180590083
:101150001062880021628800105880006101b80088
:101160001062800021628000800f5100818f590041
:101170000300340010588000d06188000b00370055
:10118000105880006101b800106280002162800068
:10119000800f5100818f590004003d0010628000d3
:1011a0002162800000007800d0618800d06180005a
:1011b0008000eb00ad25070002002000a3472400bb
:1011c000fe240700f057880001588800f05780007f
:1011d00001588000704b8800814b8800f4578000d4
:1011e00005588000304a8000414a80000001be005e
:1011f0000400be008b240700205888003158880066
:10120000f0c9bf00e14f500062003a00c5cabf00fc
:10121000e14f5000030032009cc8bf000004e00012
:101220005c003a0031668000007d2000808f500015
:1012300058003a00f8578000095880006057800035
:101240008000eb00892507000001be00000020009f
:1012500001582400732407000002be0020578000bc
:10126000315780000001be000400be00de250700eb
:101270000001be000800be00d024070011230700b3
:10128000d0408800384a8000494a8000605780007a
:101290008000eb00752507000001be000000200063
:1012a000015824005f2407000002be002057800080
:1012b000315780000001be000400be00ca250700af
:1012c0000001be000800be00bc240700fd2207008c
:1012d000c040880020812000d6230700b040800055
:1012e000ca2307000200200003f823004e24070051
:1012f00002002a00c3602400bb2507000200200072
:1013000003002400ad240700405288005152880099
:10131000405280005152800002002000031224003d
:10132000a62407000004be00c0c8bf000080fb0068
:10133000cf80de004a2507000001be000800be0085
:10134000a92507002b25070020528800315288006c
:101350008032220010528800105280006101b800d3
:101360002052800031528000800f5100818f59003f
:1013700004003100105280008000eb0020528800f1
:1013800031528800205280003152800000007800e5
:10139000704788009ec8bf00e14f500005003a002a
:1013a000104780005047880090488000b04888006f
:1013b000070037009ec8bf000004e00004003a00a8
:1013c000b046800050478800e0468000b048880062
:1013d000504780008000eb00242507000004be0079
:1013e000c05880008000eb00202507000001be00ef
:1013f0000800be000b2407000002be0080588000d9
:10140000915880000001be000400be007625070050
:10141000704a8800814a8800b04880008000eb0054
:10142000122507000002be00d0578000e15780005f
:101430000001be000400be00fa2307000002be0047
:1014400070578000815780000001be000400be007c
:10145000652507000004be00f6cabf000080fb003f
:10146000cf80de00fe2407000001be000800be00a1
:10147000ed230700d04a8800e14a8800b449800083
:10148000c5498000d04a8000e14a80000001be00ca
:101490000400be00e32307000002be0020598000c4
:1014a000315980000001be000400be004e25070037
:1014b0000002be0070498000814980000001be002a
:1014c0000400be00d8230700f04a8800014b8800c2
:1014d000d44a8000e54a8000b0498000c1498000bc
:1014e00018c0b3000001be000400be009e24070027
:1014f0000000e00001003c000044eb000804e000b4
:101500000300320010c0b300b2e8b700010037009a
:10151000b268ef00b2c8bf00e14f500006003a00c9
:10152000a4c8bf00e14f500003003a0010c0b30050
:101530009fe8b700010037009f68ef009fc8bf0019
:101540000004e00004003200e146800080bb20007f
:10155000808f50000500360070498000814980006e
:10156000f05788000158880004003700f04a8000d6
:10157000014b8000f057880001588800e4c9bf0083
:10158000e14f500007003a00704980008149800017
:10159000d2cc2c00c3d4230013250700f0578800b9
:1015a00001588800f057800001588000304b8800b7
:1015b000414b8800f457800005588000704a800035
:1015c000814a80000001be000400be009523070090
:1015d0004058880051588800f1c9bf00e14f5000c1
:1015e0005e003a00c5cabf00e14f50000300320060
:1015f0009ec8bf000004e00058003a003166800039
:10160000007d2000808f500054003a00f857800081
:1016100009588000c058800001002100008050005f
:101620008000eb00912407000002be00805880007b
:10163000915880000001be000400be00ea240700ab
:101640000001be000800be00dc2307001d220700c9
:1016500020418800784a8000894a8000c058800074
:1016600001002100008050008000eb007f24070073
:101670000002be0080588000915880000001be002a
:101680000400be00d82407000001be000800be0010
:10169000ca2307000b22070010418800c0812000e8
:1016a000e422070000418000d82207000200200049
:1016b00003f823005c23070002002a00c360240013
:1016c000c92407000200200003002400bb230700f8
:1016d0004052880051528800405280005152800090
:1016e0000200200003122400b42307000004be00ff
:1016f000c1c8bf000080fb00cf80de005824070077
:101700000001be000800be00b7240700392407000e
:101710002052880031528800803222001052880006
:10172000105280006101b8002052800031528000c8
:10173000800f5100818f5900040031001052800049
:101740008000eb0020528800315288002052800037
:10175000315280000000780080478800a0c8bf0098
:10176000e14f500005003a002047800060478800a4
:10177000a0488000c048880007003700a0c8bf000c
:101780000004e00004003a00c04680006047880082
:10179000f0468000c0488800604780008000eb0071
:1017a000322407000004be00105980008000eb00c6
:1017b0002e2407000001be000800be001923070008
:1017c0000002be00d0588000e15880000001be0039
:1017d0000400be0084240700504a8800614a880043
:1017e000c04880008000eb00202407000004be00f9
:1017f000905980008000eb001c2407000001be000f
:101800000800be00072307000002be0060598000e8
:10181000715980000001be000400be007224070060
:10182000405288005152880040528000515280003e
:1018300018c0b3006011b800c92307000000e00021
:10184000010035000044eb000804e0000300320012
:101850006000b80040528800515288004052800019
:101860005152800018c0b30002002000e33724006a
:10187000bd2307000000e00001003c000044eb0035
:101880000804e0000400320000002000e1372400da
:1018900040528800515288004052800051528000ce
:1018a0000200200003f02300df220700d1230700fd
:1018b000004078008080fb0080b320000080400062
:1018c000104078000080fb00b0478800d8498000b5
:1018d000e9498000b04780008000eb00e323070067
:1018e0000001be000800be00ce2207000002be00bc
:1018f00040598000515980000001be000400be0024
:10190000392407000002be0090498000a1498000f0
:101910000001be000400be00c3220700b04a8800d8
:10192000c14a8800b04780008000eb00cf23070049
:101930000002be00d0498000e149800018c0b30019
:101940000001be000400be00872307000000e00085
:1019500001003c000044eb000804e00003003200fa
:1019600010c0b300b3e8b70001003700b368ef0060
:10197000b3c8bf00e14f500006003a00a5c8bf0041
:10198000e14f500003003a0010c0b300a1e8b700d7
:1019900001003700a168ef00a1c8bf000004e0000b
:1019a00005003a0090498000a1498000f057880066
:1019b0000158880004003700b04a8000c14a800006
:1019c000f057880001588800f057800001588000c7
:1019d000504b8800614b8800f45780000558800008
:1019e000504a8000614a80000001be000400be0031
:1019f0008c2207006058880071588800f2c9bf0027
:101a0000e14f50005e003a00c5cabf00e14f5000f0
:101a100003003200a0c8bf000004e00058003a00f4
:101a200031668000007d2000808f500054003a0015
:101a3000f8578000095880001059800001002100eb
:101a4000008050008000eb00882307000002be00e9
:101a5000d0588000e15880000001be000400be00a4
:101a6000e12307000001be000800be00d3220700ea
:101a70001421070070418800584a8000694a80009c
:101a80001059800001002100008050008000eb0010
:101a9000762307000002be00d0588000e158800085
:101aa0000001be000400be00cf2307000001be00fd
:101ab0000800be00c1220700022107006041880023
:101ac00060822000db21070050418000cf21070009
:101ad0000200200003f823005322070002002a001e
:101ae000c3602400c023070002002000030024007c
:101af000b2220700405288005152880040528000b4
:101b0000515280000200200003122400ab22070083
:101b10000004be00c2c8bf000080fb00cf80de0012
:101b20004f2307000001be000800be00ae230700df
:101b30003023070020528800315288008032220072
:101b400010528800105280006101b80020528000bd
:101b500031528000800f5100818f59000400310004
:101b6000105280008000eb00205288003152880023
:101b70002052800031528000000078009047880099
:101b8000304780008000eb00382307000004be00cf
:101b9000506280008000eb00342307000001be008b
:101ba0000800be001f2207000002be00a0598000ee
:101bb000b15980000001be000400be008a23070066
:101bc000104b8800214b8800bec8bf000004e00015
:101bd00002003200bec8bf0016eeb700bec8bf008c
:101be0000004e00024003a002058800031588000b2
:101bf00018c0b3006011b800d92207000000e0004f
:101c0000010035000044eb000804e000020032004f
:101c100010c0b30016eeb700605880007158800005
:101c200018c0b3006011b800cd2207000000e0002a
:101c3000010035000044eb000804e000020032001f
:101c400030c0b30016eeb7004058800051588000f5
:101c500018c0b3006011b800c12207000000e00006
:101c6000010035000044eb000804e00002003200ef
:101c700020c0b30016eeb70016cebf000080fb00f8
:101c8000e30f500012003200e30f500005003c004b
:101c9000e10f500008003200e20f5000090032004e
:101ca00013003700e40f50000c003200e50f500025
:101cb0000d0032000e00370070478000a0478800fa
:101cc0000b00370080478000a047880008003700dd
:101cd00090478000a047880005003700204680001c
:101ce000a047880002003700f428ef000000000041
:101cf000a0168000620060000000e00009003a00c9
:101d00008021ef00ee28ef00f028ef00f228ef002e
:101d1000f428ef00c86cef006000b8003062880063
:101d200041628800a04780008000eb00cf220700be
:101d30000002be00306280004162800018c0b30023
:101d40000001be000400be00872207000000e00082
:101d500001003c000044eb000804e0003a003200bf
:101d6000c8ccbf00e14f500003003a00a0478000fc
:101d7000c06188004500370031668000007d20008a
:101d8000808f500007003a0030628000416280007e
:101d90000200200003f82300a3210700306288001e
:101da00041628800a04780008000eb00af2207005e
:101db0000002be00306280004162800018c0b300a3
:101dc0000001be000400be00672207000000e00022
:101dd00001003c000044eb000804e0000600320073
:101de000306280004162800082220700000078009b
:101df000c061880025003700a04780008000eb000c
:101e00009a2207000002be0030628000416280001a
:101e100018c0b3000001be000400be00502207003d
:101e20000000e000010035000044eb000804e00081
:101e300016003200a0478000c061880010c0b300c7
:101e4000c8ecb70011003700a04780008000eb000d
:101e5000862207000002be003062800041628000de
:101e600018c0b3000001be000400be003c22070001
:101e70000000e000010035000044eb000804e00031
:101e800002003200a0478000c0618800c06180006d
:101e9000c0478800c147800080322200808f5000f8
:101ea0000200360080322200c0478800a016800061
:101eb000620060000000e0000a003a008021ef00ac
:101ec000ee28ef00f028ef00f228ef00f828ef00ee
:101ed000c86cef006000b800306288004162880082
:101ee0001800370040ccbf000004e0000f003a00ab
:101ef000aec8bf000004e0000c003a003dccbf00bb
:101f0000e14f5000060032003cccbf00e14f5000d2
:101f100003003200acc8bf00e14f500003003a009c
:101f2000c0478000000c8800060037008021ef00c9
:101f3000c42cef00ee28ef00f028ef00f228ef00ad
:101f4000f828ef0044c8bf00e14f500008003a00f5
:101f50004c28ef004468ef003bcabf000004e000db
:101f600001003a00a00b07003b6aef003c2aef009b
:101f7000b5c9bf00e14f5000a8013a00b569ef00b4
:101f8000704280000000e80070428800b4c9bf00c1
:101f90008080fb00109b20000080400010417800f2
:101fa000419b200091407800b4c9bf008081fb00b4
:101fb000e09a20000080410010407800d50a070018
:101fc000b4c9bf000040e800b4e9b700b4c9bf001d
:101fd000e34f500001003a00b469ef003bcabf0074
:101fe0000004e0002a003a00e05180000000e80010
:101ff000e0518800e1518000803e2000808f500039
:10200000230036003c2aef000040eb0020479800f8
:102010001b0037002e4090008080fb00909f200026
:102020000080400010407800e14f5000070032006f
:102030002e4090008080fb00909f20000080400098
:1020400010407800e34f50000a003a002e40900004
:102050008080fb00809d20000080400010407800c0
:10206000e14f500003003a0010c0b3003beab70054
:10207000070037002e4090000040e80020479800fd
:10208000ae40900000c2b30080cf5000e1ff3600a8
:102090007142800000322000000178001100090028
:1020a0008200d8008000fd000000e0005b003a00e4
:1020b0003bcabf00e14f500058003a000040eb001f
:1020c000204798001a0037002e4090008080fb00c7
:1020d000909f20000080400010407800e14f5000a9
:1020e000070032002e4090008080fb00909f20006f
:1020f0000080400010407800e34f500009003a0093
:102100002e4090008080fb00809d200000804000d9
:10211000104078000080fb00ae009000008040007e
:10212000200798002e4090000040e80020479800cb
:10213000ae40900000c2b30080cf5000e2ff3600f6
:102140002e0090000000e00002003a003b6aef0021
:102150000d0037000000eb00200798000a00370050
:102160001e4090000040e800104798009e409000fc
:1021700010c2b30080cf500003003a00403120006d
:1021800070428800150037001e4090008080fb00e0
:10219000809d200000804000104078000004e00096
:1021a000efff32001e4090008080fb00909f2000d7
:1021b0000080400010407800e24f5000e8ff3200fd
:1021c0001e4090008080fb00909f20000080400017
:1021d000104078000004e000e1ff32009e409000d3
:1021e00000c2b30080cf500003003e001e409000ac
:1021f0000040e800570207001e4090000040e80041
:10220000104798009e40900000c2b30080cf50005d
:10221000020036000040eb00104798007142800039
:102220004001200000017800110009008200d80060
:102230008000fd000000e00042003a009e80fb00ac
:10224000809d20000080400010407800e14f500049
:1022500035003a009e80fb00a0a1200000804000d5
:10226000104078000004e0002f003a009e80fb0040
:10227000909f20000080400010407800e24f500006
:10228000060032009e80fb00909f200000804000ee
:1022900010407800e34f500023003a009e80fb007e
:1022a000a0a120000080400011c0b30001487800c8
:1022b00040a7a900305480009e80fb008100e80008
:1022c00000014000809b20000000410001087800d0
:1022d0001e80fb000000e800f054880030548000ad
:1022e000800078003054800000014000809b200076
:1022f00000004100100078009b2907003054800046
:102300008000e800a0002000000178001100090012
:102310008280d8008000fd00305488003054800056
:10232000572a070040a7a8001e4fe80010c2b300bc
:102330009e40780080cf500002003a000040eb0041
:10234000004f78003ecabf00e14f500010003a0035
:10235000005280000000e800005288000152800016
:10236000800c2000808f500009003a00402aef00c6
:1023700081428000c042800080805000e0852000c3
:10238000008040008040eb00014878003e6aef008a
:102390003bcabf000004e00001003a0069030700e7
:1023a000b1c8bf00e14f50001c003a0080528000cd
:1023b0009152800061004000e08048008052880017
:1023c00091528800b068ef0010c0b30054eab70023
:1023d000825280009352800000a62e00010020004f
:1023e000800f5100818f59000f00360010a62e007b
:1023f000010020008052880091528800f0c9bf007f
:10240000e14f500008003a00502aef00522aef0036
:10241000546aef00b168ef0003003700502aef0064
:10242000522aef00546aef00b0c8bf00e14f5000dd
:1024300021003a006052800071528000610040002b
:10244000e08048006052880071528800625280002b
:102450007352800000c02a0071102000800f5100cc
:10246000818f59001a00360010c0b30054eab7003b
:1024700062528000735280000066290081102000a3
:10248000800f5100818f590011003600106629001d
:10249000811020006052880071528800f0c9bf008e
:1024a000e14f50000a003a004c2aef004e2aef009c
:1024b000546aef0006003700b1c8bf000004e00016
:1024c00003003a004c2aef004e2aef00546aef0056
:1024d000c1cabf000004e00009003a005066800055
:1024e0000000e8005066880050668000e40f50004d
:1024f00003003a00ca2cef0010c0b300c4eab700d2
:102500005accbf00e14f500003003a00e062800067
:102510000000e800e06288005eccbf00e14f5000a0
:1025200003003a00006380000000e80000638800b8
:1025300040ccbf000004e00038003a00aec8bf0045
:102540000004e00035003a003dccbf00e14f5000f0
:10255000060032003cccbf00e14f500003003200c7
:10256000acc8bf00e14f50002c003a00206680004c
:102570000000e8002066880021668000007d2000c1
:10258000808f500001003a00d642a80021668000ea
:10259000107d2000808f500002003a00d642a90032
:1025a000c42cef0031668000007d2000808f500039
:1025b0001a003200d04680008000eb00ab200700fc
:1025c00018c0b300a2992900935124006620070087
:1025d0000000e00001003c000044eb000804e000c3
:1025e00004003200d662a800007d2000306688001a
:1025f0000a003700306680000000e800306688007e
:1026000031668000803e2000808f500003003a0039
:10261000d662a800007d20003066880060428000fd
:102620000000e80060428800614280002003200032
:1026300000017800110009008200d8008000fd0030
:102640000000e00032003a0046c8bf000000fb0076
:10265000e20f50000f003200e30f50001a0032006a
:10266000e10f50002a003a004116800000042000cb
:10267000008060000000e0002000320010c0b300c5
:10268000e8edb7004768ef00a00f2000506f88000a
:102690001f00370041168000000820000080600005
:1026a0000000e0001700320010c0b300e8edb700f2
:1026b0004768ef00f0c3b300e9edb700a00f2000ba
:1026c000506f880012003700411680000010200073
:1026d000008060000000e0000c00320010c0b30079
:1026e000e8edb7004768ef00f0c3b300e9edb700cd
:1026f000a00f2000506f8800050037000000000088
:102700000300370000000000010037000000000057
:1027100061428000506f8000808f50007200350051
:10272000506f8000630050006042880041168000b6
:1027300000042000008060000000e00020003a005b
:1027400044c8bf000004e0001d003a00e8cdbf000f
:10275000e14f50001a003a0010c0b30045e8b7003e
:10276000518420009140780046c8bf0080cf5000bf
:1027700010003a00504280000000e80050428800fb
:10278000e9cdbf008000fb0050428000808f5000e8
:1027900009003a0010c0b30044e8b70047c8bf00c2
:1027a00048e8b70010c0b30047e8b7004a28ef0078
:1027b000010037004a28ef0010c0b30046e8b70018
:1027c0004116800000082000008060000000e0004a
:1027d00020003a0044c8bf000004e0001d003a0099
:1027e000e8cdbf00e14f50001a003a0020c0b3000e
:1027f00045e8b700518420009140780046c8bf00ea
:1028000080cf500010003a00504280000000e800e5
:1028100050428800e9cdbf008000fb00504280009c
:10282000808f500009003a0010c0b30044e8b700a0
:1028300047c8bf0048e8b70020c0b30047e8b7006a
:102840004a28ef00010037004a28ef0020c0b300fb
:1028500046e8b700411680000010200000806000ac
:102860000000e00020003a0044c8bf000004e0007f
:102870001d003a00e8cdbf00e14f50001a003a00b9
:1028800030c0b30045e8b700518420009140780083
:1028900046c8bf0080cf500010003a005042800070
:1028a0000000e80050428800e9cdbf008000fb0036
:1028b00050428000808f500009003a0010c0b300e1
:1028c00044e8b70047c8bf0048e8b70030c0b300cd
:1028d00047e8b7004a28ef00010037004a28ef0018
:1028e00030c0b30046e8b70040ccbf000004e000b1
:1028f00002003a00c81a07001b130700614280005b
:1029000000772100808f5000010034004c28ef0038
:102910007142800000772100808f50000100340058
:102920004e28ef00e162800000772100808f500088
:10293000010036005c2cef0001638000007721006d
:10294000808f5000d3f73600602cef00d2f73700ad
:102950000000fa00a8c2a800a8e2a800a902a800e6
:10296000a922a800a942a800a962a800a982a800db
:10297000c6c2a800c6e2a800c702a800c782a90074
:10298000c762a900c742a900c722a900de02a900a8
:10299000de22a900de42a900de62a900de82a900d3
:1029a000dea2a900dec2a900d202a900d222a8009c
:1029b000d242a900d262a9000000280020088800a5
:1029c0008c60a8008460a900007d200010088800a9
:1029d000a004800000c0a00000d0a10000e0a00082
:1029e000a00488001021ef0084c0a900f07022002c
:1029f000600888008021ef008221ef008461a90037
:102a0000200c80000000a1000010a0000020a00009
:102a1000200c880011e1a8000001280000098800ae
:102a200000a62e00e0088800001580000080a100ac
:102a30000090a10000158800001580000050a00043
:102a40000060a0000070a000001588001015800034
:102a500000d0a00000e0a00000f0a0001015880049
:102a6000a342a800101580000020a0000030a100a3
:102a70000040a0000050a10010158800a222a9006b
:102a8000a202a90021158000f00f2e0080806000b6
:102a9000000021000100700020158800a4e2a900b8
:102aa0002115800000fc2f0000806000f001b300c1
:102ab00020158800a782a900a682a90030158000f1
:102ac0000000a1000010a1000020a1000030a10022
:102ad00030158800301580000080a1000090a10012
:102ae00000a0a10000b0a10030158800a802a90034
:102af000a822a900a842a900a862a900a882a9004a
:102b0000a8a2a900aa02a800aa22a800aa42a80076
:102b1000aa62a800aa82a800aaa2a800a042a800af
:102b2000a022a800a1e2a800a042a800a022a8001c
:102b30002115800000fc2f0000806000e001b30040
:102b400020158800a1e2a800452107000080fa00b6
:102b5000000006000200fa00004f78001e80fb0013
:102b6000e05488001e80fb00cf80de0012022000af
:102b700003002000820f5000838f58006f013e0039
:102b8000006001006c013700200037002900370089
:102b9000320037003b003700440037004d0037005b
:102ba000560037005f0037006800370071003700bb
:102bb0007a003700830037008c003700950037001b
:102bc0009e003700a7003700b0003700b90037007b
:102bd000c2003700cb003700d4003700dd003700db
:102be000e6003700ef003700f8003700010137003a
:102bf0000a013700130137001c0137002501370097
:102c00002e013700370137004001370010c1b300f3
:102c1000b0e9b700b369ef00e0c0b300afe9b700b7
:102c2000b269ef00f0c0b300aee9b700b169ef00e0
:102c30004201370060c1b300b0e9b700b369ef00eb
:102c400020c1b300afe9b700b269ef0080c1b300a3
:102c5000aee9b700b169ef003801370010c1b30029
:102c6000b0e9b700b369ef0010c0b300afe9b70037
:102c7000b269ef0010c1b300aee9b700b169ef006f
:102c80002e01370010c1b300b0e9b700b369ef00ff
:102c900020c0b300afe9b700b269ef0010c1b300c4
:102ca000aee9b700b169ef002401370010c1b300ed
:102cb000b0e9b700b369ef0030c0b300afe9b700c7
:102cc000b269ef0010c1b300aee9b700b169ef001f
:102cd0001a013700f0c0b300b0e9b700b369ef00e4
:102ce000d0c0b300afe9b700b269ef00e0c0b300f5
:102cf000aee9b700b169ef001001370040c1b30081
:102d0000b0e9b700b369ef0090c1b300afe9b70015
:102d1000b269ef0040c1b300aee9b700b169ef009e
:102d20000601370090c1b300b0e9b700b369ef0006
:102d300090c1b300afe9b700b269ef0040c1b30082
:102d4000aee9b700b169ef00fc00370040c1b30045
:102d5000b0e9b700b369ef00c0c0b300afe9b70096
:102d6000b269ef00b0c0b300aee9b700b169ef00df
:102d7000f200370090c1b300b0e9b700b369ef00cb
:102d8000c0c0b300afe9b700b269ef00b0c0b30094
:102d9000aee9b700b169ef00e800370040c1b30009
:102da000b0e9b700b369ef00c0c0b300afe9b70046
:102db000b269ef0010c1b300aee9b700b169ef002e
:102dc000de00370090c1b300b0e9b700b369ef008f
:102dd000c0c0b300afe9b700b269ef0010c1b300e3
:102de000aee9b700b169ef00d400370040c1b300cd
:102df000b0e9b700b369ef0080c1b300afe9b70035
:102e0000b269ef00b0c0b300aee9b700b169ef003e
:102e1000ca003700d0c0b300b0e9b700b369ef0013
:102e2000c0c0b300afe9b700b269ef00b0c0b300f3
:102e3000aee9b700b169ef00c000370040c1b30090
:102e4000b0e9b700b369ef0080c1b300afe9b700e4
:102e5000b269ef0070c1b300aee9b700b169ef002d
:102e6000b6003700d0c0b300b0e9b700b369ef00d7
:102e7000c0c0b300afe9b700b269ef0010c1b30042
:102e8000aee9b700b169ef00ac00370070c1b30024
:102e9000b0e9b700b369ef00c0c0b300afe9b70055
:102ea000b269ef0040c1b300aee9b700b169ef000d
:102eb000a200370040c1b300b0e9b700b369ef002a
:102ec00090c1b300afe9b700b269ef0020c1b30011
:102ed000aee9b700b169ef009800370090c1b300c8
:102ee000b0e9b700b369ef0090c1b300afe9b70034
:102ef000b269ef0020c1b300aee9b700b169ef00dd
:102f00008e00370030c1b300b0e9b700b369ef00fd
:102f100040c1b300afe9b700b269ef00b0c0b30081
:102f2000aee9b700b169ef008400370030c1b300eb
:102f3000b0e9b700b369ef0040c1b300afe9b70033
:102f4000b269ef0050c1b300aee9b700b169ef005c
:102f50007a00370030c1b300b0e9b700b369ef00c1
:102f600040c1b300afe9b700b269ef0030c1b300b0
:102f7000aee9b700b169ef0070003700e0c0b30000
:102f8000b0e9b700b369ef0020c0b300afe9b70004
:102f9000b269ef00e0c0b300aee9b700b169ef007d
:102fa0006600370000c1b300b0e9b700b369ef00b5
:102fb000a0c0b300afe9b700b269ef00e0c0b30052
:102fc000aee9b700b169ef005c003700f0c0b300b4
:102fd000b0e9b700b369ef0010c1b300afe9b700c3
:102fe000b269ef0040c1b300aee9b700b169ef00cc
:102ff00052003700c0c0b300b0e9b700b369ef00ba
:1030000000c1b300afe9b700b269ef00a0c0b300e0
:10301000aee9b700b169ef004800370010c1b30056
:10302000b0e9b700b369ef00c0c0b300afe9b700c3
:10303000b269ef0010c1b300aee9b700b169ef00ab
:103040003e00370080c1b300b0e9b700b369ef00bc
:1030500070c1b300afe9b700b269ef0080c1b3003f
:10306000aee9b700b169ef003400370040c1b300ea
:10307000b0e9b700b369ef0090c1b300afe9b700a2
:10308000b269ef00f0c0b300aee9b700b169ef007c
:103090002a00370090c1b300b0e9b700b369ef0070
:1030a00090c1b300afe9b700b269ef00f0c0b30060
:1030b000aee9b700b169ef0020003700c0c0b3002f
:1030c000b0e9b700b369ef00b0c0b300afe9b70033
:1030d000b269ef00f0c0b300aee9b700b169ef002c
:1030e00016003700c0c0b300b0e9b700b369ef0005
:1030f00010c1b300afe9b700b269ef00f0c0b30090
:10310000aee9b700b169ef000c00370070c1b30041
:10311000b0e9b700b369ef0000c1b300afe9b70091
:10312000b269ef00d0c0b300aee9b700b169ef00fb
:103130000000000001003700000000000080fa00dd
:10314000000006000200fa00881f7800104280008c
:10315000e10f500084003a0081428000a0428000cc
:10316000808f500018003d0060c1b300b0e9b70087
:1031700010c0b300b3e9b70080428000800078003f
:10318000a000200000017800110009008280d80012
:1031900000407800afe9b700b269ef0080428000dc
:1031a00080007800a00020000001780011000900d4
:1031b0008280d8008000fd0000407800aee9b700b2
:1031c000b169ef005006370081428000a0428000c4
:1031d000808f50002000350081428000b042800086
:1031e000808f50001c003d0090c1b300b0e9b700d3
:1031f00010c0b300b3e9b70081428000a042800054
:103200000080500080007800a000200000017800bd
:10321000110009008280d80000407800afe9b700b3
:10322000b269ef0081428000a0428000008050001f
:1032300080007800a0002000000178001100090043
:103240008280d8008000fd0000407800aee9b70021
:10325000b169ef002c06370081428000b042800047
:10326000808f50002000350081428000c0428000e5
:10327000808f50001c003d00b0c0b300b0e9b70023
:1032800010c0b300b3e9b70081428000b0428000b3
:103290000080500080007800a0002000000178002d
:1032a000110009008280d80000407800afe9b70023
:1032b000b269ef0081428000b0428000008050007f
:1032c00080007800a00020000001780011000900b3
:1032d0008280d8008000fd0000407800aee9b70091
:1032e000b169ef000806370081428000c0428000cb
:1032f000808f5000ff053500f0c0b300b0e9b70083
:1033000010c0b300b3e9b70081428000c042800022
:103310000080500080007800a000200000017800ac
:10332000110009008280d80000407800afe9b700a2
:10333000b269ef0081428000c042800000805000ee
:1033400080007800a0002000000178001100090032
:103350008280d8008000fd0000407800aee9b70010
:10336000b169ef00e805370010428000e50f50001a
:1033700018043a0081428000c04280000080500062
:10338000f10f500003023c0081428000c0428000e7
:1033900000805000cf80de001201200003002000da
:1033a000820f5000838f5800d4053e00006001005a
:1033b000110037002c00370047003700620037004b
:1033c0007d00370098003700b3003700ce0037008b
:1033d000e9003700040137001f0137003a013700c8
:1033e00055013700700137008b013700a601370007
:1033f000c1013700dc01370081428000c0428000fb
:1034000080805000e085200000804000104078005f
:103410000004e0000a003a0060c1b300b0e9b70060
:10342000b369ef0070c1b300afe9b700b269ef0054
:1034300080c1b300aee9b700b169ef000900370001
:10344000d0c0b300b0e9b700b369ef0040c1b3002a
:10345000afe9b700b269ef0030c1b300aee9b70021
:10346000b169ef00ca01370081428000c04280008c
:1034700080805000e08520000080400010407800ef
:103480000004e0000a003a0070c1b300b0e9b700e0
:10349000b369ef00a0c0b300afe9b700b269ef00b5
:1034a00090c1b300aee9b700b169ef000900370081
:1034b000d0c0b300b0e9b700b369ef0040c1b300ba
:1034c000afe9b700b269ef0030c1b300aee9b700b1
:1034d000b169ef00ae01370081428000c042800038
:1034e00080805000e085200000804000104078007f
:1034f0000004e0000a003a00f0c0b300b0e9b700f1
:10350000b369ef0070c1b300afe9b700b269ef0073
:1035100080c1b300aee9b700b169ef000900370020
:10352000d0c0b300b0e9b700b369ef0040c1b30049
:10353000afe9b700b269ef0030c1b300aee9b70040
:10354000b169ef009201370081428000c0428000e3
:1035500080805000e085200000804000104078000e
:103560000004e0000a003a00c0c0b300b0e9b700b0
:10357000b369ef0010c1b300afe9b700b269ef0063
:1035800060c1b300aee9b700b169ef0009003700d0
:10359000d0c0b300b0e9b700b369ef0040c1b300d9
:1035a000afe9b700b269ef0030c1b300aee9b700d0
:1035b000b169ef007601370081428000c04280008f
:1035c00080805000e085200000804000104078009e
:1035d0000004e0000a003a0010c1b300b0e9b700ef
:1035e000b369ef00b0c0b300afe9b700b269ef0054
:1035f000c0c0b300aee9b700b169ef000900370001
:10360000d0c0b300b0e9b700b369ef0040c1b30068
:10361000afe9b700b269ef0030c1b300aee9b7005f
:10362000b169ef005a01370081428000c04280003a
:1036300080805000e085200000804000104078002d
:103640000004e0000a003a0000c1b300b0e9b7008e
:10365000b369ef00b0c0b300afe9b700b269ef00e3
:10366000c0c0b300aee9b700b169ef000900370090
:10367000d0c0b300b0e9b700b369ef0040c1b300f8
:10368000afe9b700b269ef0030c1b300aee9b700ef
:10369000b169ef003e01370081428000c0428000e6
:1036a00080805000e08520000080400010407800bd
:1036b0000004e0000a003a0010c1b300b0e9b7000e
:1036c000b369ef0010c1b300afe9b700b269ef0012
:1036d000c0c0b300aee9b700b169ef000900370020
:1036e000d0c0b300b0e9b700b369ef0040c1b30088
:1036f000afe9b700b269ef0030c1b300aee9b7007f
:10370000b169ef002201370081428000c042800091
:1037100080805000e085200000804000104078004c
:103720000004e0000a003a0000c1b300b0e9b700ad
:10373000b369ef0010c1b300afe9b700b269ef00a1
:10374000c0c0b300aee9b700b169ef0009003700af
:10375000d0c0b300b0e9b700b369ef0040c1b30017
:10376000afe9b700b269ef0030c1b300aee9b7000e
:10377000b169ef000601370081428000c04280003d
:1037800080805000e08520000080400010407800dc
:103790000004e0000a003a0010c1b300b0e9b7002d
:1037a000b369ef0040c1b300afe9b700b269ef0001
:1037b00090c1b300aee9b700b169ef00090037006e
:1037c000d0c0b300b0e9b700b369ef0040c1b300a7
:1037d000afe9b700b269ef0030c1b300aee9b7009e
:1037e000b169ef00ea00370081428000c0428000ea
:1037f00080805000e085200000804000104078006c
:103800000004e0000a003a0000c1b300b0e9b700cc
:10381000b369ef0040c1b300afe9b700b269ef0090
:1038200090c1b300aee9b700b169ef0009003700fd
:10383000d0c0b300b0e9b700b369ef0040c1b30036
:10384000afe9b700b269ef0030c1b300aee9b7002d
:10385000b169ef00ce00370081428000c042800095
:1038600080805000e08520000080400010407800fb
:103870000004e0000a003a0010c1b300b0e9b7004c
:10388000b369ef0020c1b300afe9b700b269ef0040
:1038900090c1b300aee9b700b169ef00090037008d
:1038a000d0c0b300b0e9b700b369ef0040c1b300c6
:1038b000afe9b700b269ef0030c1b300aee9b700bd
:1038c000b169ef00b200370081428000c042800041
:1038d00080805000e085200000804000104078008b
:1038e0000004e0000a003a0000c1b300b0e9b700ec
:1038f000b369ef0020c1b300afe9b700b269ef00d0
:1039000090c1b300aee9b700b169ef00090037001c
:10391000d0c0b300b0e9b700b369ef0040c1b30055
:10392000afe9b700b269ef0030c1b300aee9b7004c
:10393000b169ef009600370081428000c0428000ec
:1039400080805000e085200000804000104078001a
:103950000004e0000a003a0010c1b300b0e9b7006b
:10396000b369ef00b0c0b300afe9b700b269ef00d0
:1039700080c1b300aee9b700b169ef0009003700bc
:10398000d0c0b300b0e9b700b369ef0040c1b300e5
:10399000afe9b700b269ef0030c1b300aee9b700dc
:1039a000b169ef007a00370081428000c042800098
:1039b00080805000e08520000080400010407800aa
:1039c0000004e0000a003a0000c1b300b0e9b7000b
:1039d000b369ef00b0c0b300afe9b700b269ef0060
:1039e00080c1b300aee9b700b169ef00090037004c
:1039f000d0c0b300b0e9b700b369ef0040c1b30075
:103a0000afe9b700b269ef0030c1b300aee9b7006b
:103a1000b169ef005e00370081428000c042800043
:103a200080805000e0852000008040001040780039
:103a30000004e0000a003a0010c1b300b0e9b7008a
:103a4000b369ef0000c1b300afe9b700b269ef009e
:103a500080c1b300aee9b700b169ef0009003700db
:103a6000d0c0b300b0e9b700b369ef0040c1b30004
:103a7000afe9b700b269ef0030c1b300aee9b700fb
:103a8000b169ef004200370081428000c0428000ef
:103a900080805000e08520000080400010407800c9
:103aa0000004e0000a003a0000c1b300b0e9b7002a
:103ab000b369ef0000c1b300afe9b700b269ef002e
:103ac00080c1b300aee9b700b169ef00090037006b
:103ad000d0c0b300b0e9b700b369ef0040c1b30094
:103ae000afe9b700b269ef0030c1b300aee9b7008b
:103af000b169ef002600370081428000c04280009b
:103b000080805000e0852000008040001040780058
:103b10000004e0000a003a00f0c0b300b0e9b700ca
:103b2000b369ef0020c1b300afe9b700b269ef009d
:103b300080c1b300aee9b700b169ef0009003700fa
:103b4000d0c0b300b0e9b700b369ef0040c1b30023
:103b5000afe9b700b269ef0030c1b300aee9b7001a
:103b6000b169ef000a00370030c1b300b0e9b70017
:103b7000b369ef0090c1b300afe9b700b269ef00dd
:103b800010c1b300aee9b700b169ef00000000005a
:103b9000dd03370081428000c04280000080500079
:103ba000f10f5000b201340081428000c042800019
:103bb00000805000fb0f5000ad013c0030548000ed
:103bc0000000e00003003a0090002000000f7800a1
:103bd0000200370030548000000fe900814280006d
:103be000c042800000805000720050009e0f5000c4
:103bf00006003600c14280008042800000805000f4
:103c00001e0040007c0f400005003700c1428000cc
:103c100080428000008050001e004000720f400073
:103c20001e00780080004000809b20000080400043
:103c3000100078000000e0000a003a0030c1b30034
:103c4000b0e9b700b369ef00a0c0b300afe9b700b7
:103c5000b269ef0010c1b300aee9b700b169ef007f
:103c6000a90337001e00780080004000809b2000e0
:103c70000080400010007800cf80de00120220009b
:103c800003002000820f5000838f58009d033e00e8
:103c900000600100210037002a00370033003700a0
:103ca0003c003700450037004e0037005700370012
:103cb0006000370069003700720037007b00370072
:103cc000840037008d003700960037009f003700d2
:103cd000a8003700b1003700ba003700c300370032
:103ce000cc003700d5003700de003700e700370092
:103cf000f0003700f9003700020137000b013700f0
:103d0000140137001d013700260137002f0137004d
:103d100038013700410137004a01370030c1b30094
:103d2000b0e9b700b369ef00a0c0b300afe9b700d6
:103d3000b269ef0010c1b300aee9b700b169ef009e
:103d40004a01370010c1b300b0e9b700b369ef0012
:103d5000e0c0b300afe9b700b269ef00f0c0b30054
:103d6000aee9b700b169ef004001370060c1b300b0
:103d7000b0e9b700b369ef0020c1b300afe9b70005
:103d8000b269ef0080c1b300aee9b700b169ef00de
:103d90003601370010c1b300b0e9b700b369ef00d6
:103da00010c0b300afe9b700b269ef0010c1b300b3
:103db000aee9b700b169ef002c01370010c1b300c4
:103dc000b0e9b700b369ef0020c0b300afe9b700b6
:103dd000b269ef0010c1b300aee9b700b169ef00fe
:103de0002201370010c1b300b0e9b700b369ef009a
:103df00030c0b300afe9b700b269ef0010c1b30043
:103e0000aee9b700b169ef0018013700f0c0b300a8
:103e1000b0e9b700b369ef00d0c0b300afe9b700b5
:103e2000b269ef00e0c0b300aee9b700b169ef00de
:103e30000e01370040c1b300b0e9b700b369ef002d
:103e400090c1b300afe9b700b269ef0040c1b30061
:103e5000aee9b700b169ef000401370090c1b300cb
:103e6000b0e9b700b369ef0090c1b300afe9b700a4
:103e7000b269ef0040c1b300aee9b700b169ef002d
:103e8000fa00370040c1b300b0e9b700b369ef00f2
:103e9000c0c0b300afe9b700b269ef00b0c0b30073
:103ea000aee9b700b169ef00f000370090c1b30090
:103eb000b0e9b700b369ef00c0c0b300afe9b70025
:103ec000b269ef00b0c0b300aee9b700b169ef006e
:103ed000e600370040c1b300b0e9b700b369ef00b6
:103ee000c0c0b300afe9b700b269ef0010c1b300c2
:103ef000aee9b700b169ef00dc00370090c1b30054
:103f0000b0e9b700b369ef00c0c0b300afe9b700d4
:103f1000b269ef0010c1b300aee9b700b169ef00bc
:103f2000d200370040c1b300b0e9b700b369ef0079
:103f300080c1b300afe9b700b269ef00b0c0b30011
:103f4000aee9b700b169ef00c8003700d0c0b300d8
:103f5000b0e9b700b369ef00c0c0b300afe9b70084
:103f6000b269ef00b0c0b300aee9b700b169ef00cd
:103f7000be00370040c1b300b0e9b700b369ef003d
:103f800080c1b300afe9b700b269ef0070c1b30000
:103f9000aee9b700b169ef00b4003700d0c0b3009c
:103fa000b0e9b700b369ef00c0c0b300afe9b70034
:103fb000b269ef0010c1b300aee9b700b169ef001c
:103fc000aa00370070c1b300b0e9b700b369ef00d1
:103fd000c0c0b300afe9b700b269ef0040c1b300a1
:103fe000aee9b700b169ef00a000370040c1b300ef
:103ff000b0e9b700b369ef0090c1b300afe9b70013
:10400000b269ef0020c1b300aee9b700b169ef00bb
:104010009600370090c1b300b0e9b700b369ef0074
:1040200090c1b300afe9b700b269ef0020c1b3009f
:10403000aee9b700b169ef008c00370030c1b300c2
:10404000b0e9b700b369ef0040c1b300afe9b70012
:10405000b269ef00b0c0b300aee9b700b169ef00dc
:104060008200370030c1b300b0e9b700b369ef0098
:1040700040c1b300afe9b700b269ef0050c1b3006f
:10408000aee9b700b169ef007800370030c1b30086
:10409000b0e9b700b369ef0040c1b300afe9b700c2
:1040a000b269ef0030c1b300aee9b700b169ef000b
:1040b0006e003700e0c0b300b0e9b700b369ef00ad
:1040c00020c0b300afe9b700b269ef00e0c0b300b1
:1040d000aee9b700b169ef006400370000c1b3007a
:1040e000b0e9b700b369ef00a0c0b300afe9b70013
:1040f000b269ef00e0c0b300aee9b700b169ef000c
:104100005a003700f0c0b300b0e9b700b369ef0060
:1041100010c1b300afe9b700b269ef0040c1b3000e
:10412000aee9b700b169ef0050003700c0c0b3007e
:10413000b0e9b700b369ef0000c1b300afe9b70061
:10414000b269ef00a0c0b300aee9b700b169ef00fb
:104150004600370010c1b300b0e9b700b369ef0003
:10416000c0c0b300afe9b700b269ef0010c1b3003f
:10417000aee9b700b169ef003c00370080c1b30081
:10418000b0e9b700b369ef0070c1b300afe9b700a1
:10419000b269ef0080c1b300aee9b700b169ef00ca
:1041a0003200370040c1b300b0e9b700b369ef0097
:1041b00090c1b300afe9b700b269ef00f0c0b3003f
:1041c000aee9b700b169ef002800370090c1b30035
:1041d000b0e9b700b369ef0090c1b300afe9b70031
:1041e000b269ef00f0c0b300aee9b700b169ef000b
:1041f0001e003700c0c0b300b0e9b700b369ef00dc
:10420000b0c0b300afe9b700b269ef00f0c0b300cf
:10421000aee9b700b169ef0014003700c0c0b300c9
:10422000b0e9b700b369ef0010c1b300afe9b70060
:10423000b269ef00f0c0b300aee9b700b169ef00ba
:104240000a00370070c1b300b0e9b700b369ef00ee
:1042500000c1b300afe9b700b269ef00d0c0b3004e
:10426000aee9b700b169ef00000000002602370098
:1042700081428000c042800000805000fb0f50004f
:104280003800340081428000c042800080805000ad
:10429000c0032000808f500032003c00814280002b
:1042a000c042800080805000e085200000804000f7
:1042b000104078008000fb004006200000017800dc
:1042c000110009008280d80000407800b0e9b700f2
:1042d000b369ef0081428000c042800080805000be
:1042e000e085200000804000104078008000fb0046
:1042f0004006200000017800110009008280d800eb
:104300008000fd0080007800a000200000017800ff
:10431000110009008280d80000407800afe9b700a2
:10432000b269ef0081428000c0428000808050006e
:10433000e085200000804000104078008000fb00f5
:10434000a000200000017800110009008280d80040
:104350008000fd0000407800aee9b700b169ef00d1
:10436000e901370081428000c04280008080500017
:10437000e085200000804000104078000004e0004c
:104380000a003a00f0c0b300b0e9b700b369ef002b
:1043900010c1b300afe9b700b269ef0070c1b3005c
:1043a000aee9b700b169ef00d701370080c1b300b3
:1043b000b0e9b700b369ef0060c1b300afe9b7007f
:1043c000b269ef0090c1b300aee9b700b169ef0088
:1043d000cd01370010428000e60f500033003a0054
:1043e00081428000b042800080805000408b2000dd
:1043f00000804000104078008080fb0040062000d4
:1044000000017800110009008280d8000040780087
:10441000b0e9b700b369ef0081428000b04280008c
:1044200080805000408b20000080400010407800c9
:104430008080fb0040062000000178001100090088
:104440008280d8008000fd00004078008080fb0062
:10445000a000200000017800110009008280d8002f
:1044600000407800afe9b700b269ef0081428000f8
:10447000b042800080805000408b200000804000cf
:10448000104078008080fb00a00020000001780030
:10449000110009008280d8008000fd0000407800f3
:1044a000aee9b700b169ef00970137001042800014
:1044b000e70f50003e003a008842800080428000b2
:1044c000c200dd0020922000008040001000be00ed
:1044d00002002000031224004319070002002000fc
:1044e0000312240035180700c21807008000780066
:1044f00008014400209720000000410001087800d6
:104500008042800080004000209720000080400012
:10451000900078004006200000017800110009009a
:104520008280d80000407800b0e9b700b369ef009e
:1045300080428000800040002097200000804000e2
:10454000900078004006200000017800110009006a
:104550008280d8008000fd0080007800a00020004c
:1045600000017800110009008280d8000040780026
:10457000afe9b700b269ef008042800080004000e0
:10458000209720000080400090007800a0002000cc
:1045900000017800110009008280d8008000fd0031
:1045a00000407800aee9b700b169ef00560137006e
:1045b00010428000e80f500022003a00884280003c
:1045c00080428000c200dd00209220000080400078
:1045d0001000be0002002000031224000219070090
:1045e0006318070080007800a00020000001780018
:1045f000110009008200d8008000fd008040780092
:10460000a09920000000440001487800c0c3b30016
:10461000b0e9b700b369ef00c0c3b300afe9b700ba
:1046200010c0b300b2e9b70081428000a099200019
:104630000080400010407800aee9b700b169ef009b
:104640003101370010428000e90f5000c2003a00eb
:1046500081428000a0428000008050008000400025
:10466000408c20000080400090007800703e2000c8
:10467000808f500040003e0081428000a0428000b8
:104680000080500080004000408c200000804000ee
:104690009000780040062000000178001100090019
:1046a0008280d80000407800b0e9b700b369ef001d
:1046b00081428000a04280000080500080004000c5
:1046c000408c2000008040009000780040062000d0
:1046d00000017800110009008280d8008000fd00f0
:1046e00080007800a000200000017800110009007f
:1046f0008280d80000407800afe9b7008142800096
:10470000a042800000805000fe0f500009003400dd
:1047100081428000a0428000808050005002200032
:10472000808f500003003c0010c0b300b2e9b70016
:1047300001003700b269ef0081428000a042800092
:104740000080500080004000408c2000008040002d
:1047500090007800a00020000001780011000900fe
:104760008280d8008000fd0000407800aee9b700ec
:10477000b169ef00e400370081428000a042800070
:104780000080500080004000408c200000804000ed
:1047900090007800f0702200808f500037003e00bb
:1047a00081428000a04280000080500080004000d4
:1047b000408c20000080400090007800803e200067
:1047c00000017800110009008280d80000407800c4
:1047d000b0e9b700b369ef0081428000a0428000d9
:1047e0000080500080004000408c2000008040008d
:1047f00090007800803e2000000178001100090040
:104800008280d8008000fd008000780040062000f3
:1048100000017800110009008280d8000040780073
:10482000afe9b700b269ef0081428000a04280008a
:104830000080500080004000408c2000008040003c
:104840009000780040062000000178001100090067
:104850008280d8008000fd0080007800a000200049
:1048600000017800110009008280d8000040780023
:10487000aee9b700b169ef00a300370081428000c4
:10488000a04280000080500080004000408c20004a
:104890000080400090007800007122000001780044
:1048a000110009008280d80000407800b0e9b7000c
:1048b000b369ef0081428000a04280000080500078
:1048c00080004000408c2000008040009000780074
:1048d0000071220000017800110009008280d800d8
:1048e0008000fd0080007800803e200000017800fc
:1048f000110009008280d80000407800afe9b700bd
:10490000b269ef0081428000a04280000080500028
:1049100080004000408c2000008040009000780023
:10492000803e200000017800110009008280d8003c
:104930008000fd0080007800400620000001780023
:10494000110009008280d80000407800aee9b7006d
:10495000b169ef006c00370010428000ea0f500090
:1049600069003a0081428000a0428000008050002f
:1049700080004000408c20000080400090007800c3
:10498000703e2000808f50000a003e00c0c3b3007c
:10499000b0e9b700b369ef00c0c3b300afe9b70037
:1049a000b269ef00c0c3b300aee9b700b169ef0070
:1049b0005500370081428000a042800000805000f6
:1049c00080004000408c2000008040009000780073
:1049d000f0702200808f50001f003e00c0c3b30063
:1049e000b0e9b700b369ef00c0c3b300afe9b700e7
:1049f00081428000a0428000808050002002200080
:104a0000808f500003003a0010c0b300b2e9b70035
:104a100001003700b269ef0081428000a0428000af
:104a20000080500080004000408c2000008040004a
:104a300090007800a000200000017800110009001b
:104a40008280d8008000fd0000407800aee9b70009
:104a5000b169ef002c003700c0c3b300b0e9b70064
:104a6000b369ef0081428000a042800000805000c6
:104a700080004000408c20000080400090007800c2
:104a80004006200000017800110009008280d80053
:104a90008000fd0080007800a00020000001780068
:104aa000110009008280d80000407800afe9b7000b
:104ab000b269ef0081428000a04280000080500077
:104ac00080004000408c2000008040009000780072
:104ad000a000200000017800110009008280d800a9
:104ae0008000fd0000407800aee9b700b169ef003a
:104af0000500370000000000030037000000000040
:104b000001003700000000004f0478000080fa0028
:104b1000000006000400fa00004f780011479800da
:104b2000224798001e4090000080fb00e10f5000db
:104b300008003200e20f50000a0032000000e000de
:104b40000c003a00cb62a900cb42a900cb22a800fe
:104b500008003700cb42a800cb62a900cb22a900f5
:104b600004003700cb22a900cb62a800cb42a900e9
:104b7000000000001e80fb00cf80de00c20320008a
:104b800003002000820f5000838f58008e003e00eb
:104b9000006001003c0037003e0037004000370055
:104ba0004200370044003700460037004800370015
:104bb0004a0037004c0037004e00370050003700e5
:104bc00052003700540037005600370058003700b5
:104bd0005a0037005c0037005e0037006000370085
:104be0006200370064003700660037006800370055
:104bf0006a0037006c0037006e0037007200370023
:104c000071003700700037006f0037006e0037000a
:104c10006d0037006c0037006b0037006a0037000a
:104c2000690037006800370067003700660037000a
:104c3000650037006400370063003700620037000a
:104c400061003700600037005f0037005e0037000a
:104c50005d0037005c0037005b0037005a0037000a
:104c6000590037005800370057003700560037000a
:104c7000550037005400370053003700520037000a
:104c8000510037004e0037007007200000178800e1
:104c90004d00370020012000001788004a0037002f
:104ca000b00620000017880047003700b00320003e
:104cb0000017880044003700e0012000001788003a
:104cc00041003700d0032000001788003e00370065
:104cd000d0072000001788003b003700300120007b
:104ce0000017880038003700f00720000017880000
:104cf00035003700f003200000178800320037002d
:104d0000f0052000001788002f003700c0072000a2
:104d1000001788002c00370050062000001788007c
:104d200029003700a0072000001788002600370060
:104d3000f00620000017880023003700d004200070
:104d40000017880020003700e005200000178800c9
:104d50001d00370040062000001788001a003700a9
:104d60002001200000178800170037007005200080
:104d70000017880014003700700720000017880013
:104d800011003700f0042000001788000e003700e3
:104d900050042000001788000b003700d0032000cb
:104da0000017880008003700c006200000178800a0
:104db0000500370060072000001788000200370058
:104dc000e022ef00000000002e409000e14f500074
:104dd00002003a00cb82a80001003700cb82a90074
:104de0000080fa00000006000200fa00889fbe0062
:104df0008a1f780010002000000f78001042800009
:104e0000e10f50004f003a0045c8bf00e14f50008d
:104e100024003a0081428000a0428000808f500030
:104e200003003d007000200010428800ad043700f0
:104e300081428000a0428000808f50000700350032
:104e400081428000b0428000808f500003003d000e
:104e50009000200010428800a204370081428000a8
:104e6000b0428000808f50000700350081428000f2
:104e7000c0428000808f500003003d006000200091
:104e8000104288009704370081428000c0428000b1
:104e9000808f5000860435005000200010428800aa
:104ea0009004370045c8bf00e24f500010003a00a0
:104eb00048c8bf00e24f500004003a0020c0b300d1
:104ec000e9edb70040062000506f88008042800066
:104ed0000000e8008042880081428000904280000b
:104ee000808f50007f0435005028ef007d0437008c
:104ef00045c8bf00e34f50007a043a0048c8bf00dd
:104f0000e34f500004003a0020c0b300e9edb700c1
:104f100040062000506f8800804280000000e000c2
:104f200004003a00904280000000e90080428800be
:104f30006c043700804280000000e9008042880055
:104f40006804370010428000e50f5000ee003a0080
:104f500045c8bf00e14f500011003a00100020008a
:104f60001042880081428000c042800000805000d2
:104f7000f10f500050043c003e6aef00402aef0061
:104f800081428000c042800080805000e085200087
:104f9000008040008040eb00014878005104370059
:104fa00045c8bf00e24f500074003a0081428000c3
:104fb000c042800000805000f10f500010003c0003
:104fc00081428000c042800080805000e085200047
:104fd0000080400011c0b3000148780010c0b30049
:104fe0003eeab7008042800080407800c0428000e6
:104ff0000040780000c050003f040700390437002b
:1050000081428000c042800000805000fb0f5000b1
:105010003600340081428000c04280008080500011
:10502000c0032000808f500030003c00814280008f
:10503000c042800000805000fc005000b0c820003a
:105040000080400011c0b300014878008142800018
:10505000c042800000805000e185200081004000b7
:10506000914078008140e800e28520000200400085
:105070000148780081428000c0428000808050005a
:10508000e08520000080400010407800e44f500090
:1050900007003a0081428000c042800080805000ba
:1050a000e0852000008040008040eb00014878004f
:1050b00081428000c0428000008050007c0150008e
:1050c00081428000c042800080805000e085200046
:1050d000008040001040780080407800909f2000c1
:1050e0000000410001487800fe0337008142800043
:1050f000c042800080805000c0032000808f50009c
:10510000ef03340081428000c04280008080500064
:1051100030052000808f5000eb033c00814280006e
:10512000c042800000805000fc005000b0c8200049
:105130000080400011c0b300014878008142800027
:10514000c04280000081500081428000c042800047
:1051500080805000e08520000080400010407800f2
:1051600011c0b30000c0500080407800e0852000ee
:105170000000410001487800da03370045c8bf004d
:10518000e34f5000d2033a0081428000c0428000c9
:1051900000805000fb0f5000370034008142800037
:1051a000c042800080805000c0032000808f5000eb
:1051b00031003c0081428000c042800000805000ed
:1051c000fc005000b0c820000080400011c0b300b7
:1051d0000148780081428000c042800080805000f9
:1051e000e085200000804000104078000004e000ce
:1051f00008003a0081428000c04280008080500058
:10520000e08520000080400031c0b30001487800f4
:105210000a00370081428000c042800000805000b8
:10522000e185200081004000914078008140e90044
:10523000e2852000020040000148780081428000a1
:10524000c0428000008050007c01500081428000fc
:10525000c042800080805000e08520000080400037
:105260001040780080407800909f200000004100ae
:10527000014878009b03370081428000c0428000d3
:1052800080805000c0032000808f500092033400c3
:1052900081428000c04280008080500030052000a4
:1052a000808f50008e033c0081428000c04280000d
:1052b00000805000fc005000b0c82000008040007a
:1052c00011c0b3000148780081428000c0428000d4
:1052d0000081500081428000c042800080805000e8
:1052e000e0852000008040001040780011c0b3002d
:1052f00000c0500080407800e085200000004100a0
:10530000014878007703370010428000e60f500014
:105310005e003a0045c8bf00e14f500003003a006c
:1053200010002000104288006e03370045c8bf00ff
:10533000e24f500029003a0081428000b0428000d4
:105340008080500020c620000080400011c0b300c3
:105350000148780048c8bf00e24f500004003a00fe
:1053600020c0b300e9edb70040062000506f880070
:1053700081428000b042800080805000408b20003d
:105380000080400010407800e14f400008003a00e3
:1053900081428000b042800080805000408b20001d
:1053a000008040008040eb00014878004d0337004a
:1053b00081428000b042800000805000418b20007c
:1053c00081004000914078008140e800428b20003d
:1053d00002004000014878004203370045c8bf0082
:1053e000e34f50003f033a0081428000b04280000a
:1053f0008080500020c620000080400011c0b30013
:105400000148780048c8bf00e34f500004003a004c
:1054100020c0b300e9edb70040062000506f8800bf
:1054200081428000b042800080805000408b20008c
:1054300000804000104078000004e00008003a00be
:1054400081428000b042800080805000408b20006c
:105450000080400080c0eb00014878002103370045
:1054600081428000b042800000805000418b2000cb
:1054700081004000914078008140e900428b20008b
:1054800002004000014878001603370010428000f7
:10549000e70f50008b003a0045c8bf00e14f5000b5
:1054a00003003a0080002000104288000d033700fe
:1054b00045c8bf00e24f500040003a0080428000e3
:1054c000e80f500007033c008142800090c7200095
:1054d0000080400011c0b3000148780048c8bf00f8
:1054e000e24f500004003a0020c0b300e9edb700dd
:1054f00040062000506f88008042800080004000fd
:10550000209720000080400090007800703e20002e
:10551000808f500007003a008042800080004000e9
:105520002097200000804000713e20000108780094
:105530000a003700804280000001400021972000cf
:1055400081004100910078008100e80000014000e6
:105550002097200000004100010878008842800068
:1055600080428000800040002097200000804000a2
:10557000100078006a00b900800078008242800044
:10558000a099200000004100104078000080fb003e
:10559000008040008000eb00b414070002002000ef
:1055a0000312240005140700c241dd0022922000ee
:1055b000028141000089be00ca02370045c8bf0011
:1055c000e34f5000c7023a0080428000e80f5000cd
:1055d000c4023c008142800090c72000008040004f
:1055e00011c0b3000148780048c8bf00e34f500025
:1055f00004003a0020c0b300e9edb70040062000e7
:10560000506f88008042800080004000209720007a
:1056100000804000100078000000e00007003a0021
:1056200080428000800040002097200000804000e1
:105630008000eb00010878000a00370080428000fb
:105640000001400021972000810041009100780076
:105650008100e90000014000209720000000410087
:10566000010878008842800080428000800040006d
:105670002097200000804000100078006a00b900e8
:105680008000780082428000a09920000000410044
:10569000104078000080fb00008040008000eb009c
:1056a000721407000200200003122400c313070035
:1056b000c241dd0022922000028141000089be002b
:1056c0008802370010428000e80f50008e003a0038
:1056d00045c8bf00e14f500003003a001000200011
:1056e000104288007f02370045c8bf00e24f5000db
:1056f00041003a0080428000e80f500079023c00ef
:105700008142800020c820000080400011c0b3000a
:105710000148780048c8bf00e24f500004003a003a
:1057200020c0b300e9edb70040062000506f8800ac
:1057300081428000a0992000008040001040780045
:10574000e94f500006003a0081428000a0992000f5
:105750000080400091c0b300014878000800370085
